:020000040000FA
:06000000C3EF01F0120045
:020006000000F8
:08000800D9CFE6FFE1CFD9FFDB
:10001000040EE126FD0EDBCF14F0FE0EDBCF15F053
:10002000640E1502F3CF15F01402F3CF14F0F45060
:1000300015260D680E6A14C008F015C009F09DEC75
:1000400001F008C014F009C015F014C0DEFF15C09F
:10005000DDFF010EE76EFD0EDBCF16F0FE0EDBCFEF
:1000600017F0E7501626000E172216C008F017C02A
:1000700009F0DECF0DF0DDCF0EF07FEC01F006C011
:1000800014F007C015F0640E0D6E0E6A14C008F06F
:1000900015C009F09DEC01F008C014F009C015F07E
:1000A000020E14C0DBFF030E15C0DBFF010ECA6E8B
:1000B0000C0EBD6E020EDB50BE6ECA92CA80CA84A0
:1000C000FD0EDB50CB6E146E040EE15C02E2E16AC1
:1000D000E552E16E1450E552E7CFD9FF1200D9CFB7
:1000E000E6FFE1CFD9FF020EE1269280946A010E6D
:1000F000C26E0D0EC16E800EC06EC282C2B2FED73D
:10010000C450DE6EDD6ADECF14F0DDCF15F014C012
:1001100015F0146A14C0DEFF15C0DDFFC350E76E92
:10012000000EDFCF14F0010EDBCF15F0E7501426E0
:10013000000E152214C0DEFF15C0DDFFD9CFE9FF88
:10014000DACFEAFFEE50ED1008E18296000EE66E7F
:10015000E66A5ADFE552E5528298DECF14F0DDCF31
:1001600015F0153404E214500008000E155413E283
:10017000DECF16F0DDCF17F0173404E21650FF087B
:10018000000E175408E38286400EE66EE66A3CDFF6
:10019000E552E5528298DECF14F0DDCF15F015342C
:1001A00004E21450FF08000E155413E2DECF16F0DF
:1001B000DDCF17F0173404E216500008020E175472
:1001C00008E38286800EE66EE66A1EDFE552E5529F
:1001D0008298DECF14F0DDCF15F0153404E2145010
:1001E0000008020E155413E2DECF16F0DDCF17F033
:1001F000173404E21650FF08020E175408E38286F3
:10020000BF0EE66EE66A00DFE552E5528298DECF69
:1002100014F0DDCF15F0153404E21450FF08020E7F
:10022000155413E2DECF16F0DDCF17F0173404E2D9
:100230001650FF08030E175408E38286F90EE66E87
:10024000E66AE2DEE552E552829857D7020EE15C9B
:1002500002E2E16AE552E16EE552E7CFD9FF120012
:10026000060EF66E000EF76E000EF86E0001090025
:10027000F550656F0900F550666F03E1656701D0C1
:100280003DD00900F550606F0900F550616F09001D
:10029000F550626F09000900F550E96E0900F5504C
:1002A000EA6E090009000900F550636F0900F55076
:1002B000646F09000900F6CF67F0F7CF68F0F8CF58
:1002C00069F060C0F6FF61C0F7FF62C0F8FF00018F
:1002D000635302E1645307E00900F550EE6E6307D3
:1002E000F8E26407F9D767C0F6FF68C0F7FF69C096
:0E02F000F8FF00016507000E665BBFD7120025
:0202FE0008C036
:1003000012F008500D02F4CF07F0F3CF06F00950B9
:100310000E02F4CF09F0F3CF08F00D02F3500726D8
:10032000F4500822E86A092212500E02F350072600
:0A033000F4500822E86A0922000CCC
:06033A00056A046A100EC2
:10034000E76ED89008360936043605360D50045C41
:100350000E50055805E30D50045E0E50055A082A4C
:06036000E72EF0D71200A9
:0A036600000EF36E00EE00F0060E2C
:1003700001D81200EA6002D0EE6AFCD7F350E960BF
:060380001200EE6AFCD73A
:0A03860015EE00F025EE00F0F86A15
:10039000019C30EC01F0D1EC01F06FEC00F0FBD7E8
:0203A000120049
:0203A200120047
:00000001FF
