:020000040000FA
:0600000089EF01F012007F
:020006000000F8
:08000800D9CFE6FFE1CFD9FFDB
:10001000040EE126DE6ADD6ADECF00F0DDCF01F0FE
:10002000FD0EDBCF02F0FE0EDBCF03F00150031814
:10003000E8AE02D0033404D00250005C03500158F3
:100040001DE2020EDB6A030EDB6A020EDBCF00F05C
:10005000030EDBCF01F0D890015004E6640E005C83
:10006000000E015806E2020EDB2A030E01E3DB2A32
:10007000ECD7DF2A010E01E3DB2ACED7040EE15CC8
:1000800002E2E16AE552E16EE552E7CFD9FF1200E4
:10009000010ECA6E0C0EBD6EBE6ACA92CA80CA84B8
:1000A000CB6A1200010ECA6E0C0EBD6E100EBE6E33
:1000B000CA92CA80CA84400ECB6E1200010ECA6E6C
:1000C0000C0EBD6E410EBE6ECA92CA80CA84800EEE
:1000D000CB6E1200010ECA6E0C0EBD6E900EBE6E7F
:1000E000CA92CA80CA84BF0ECB6E1200010ECA6EBD
:1000F0000C0EBD6EF40EBE6ECA92CA80CA84F90E92
:10010000CB6E1200D9CFE6FFE1CFD9FF040EE12676
:100110009280946A010EC26E0D0EC16E800EC06E8A
:10012000C282C2B2FED7C450DE6EDD6ADECF00F0FE
:10013000DDCF01F000C001F0006A00C0DEFF01C0A9
:10014000DDFFC350E76E000EDFCF00F0010EDBCF06
:1001500001F0E7500026000E012200C0DEFF01C0C2
:10016000DDFFD9CFE9FFDACFEAFFEE50ED1003E172
:1001700082968EDF8298DECF00F0DDCF01F0013471
:1001800004E200500008000E01540EE2DECF02F03F
:10019000DDCF03F0033404E20250FF08000E0354E5
:1001A00003E382867FDF8298DECF00F0DDCF01F0AF
:1001B000013404E20050FF08000E01540EE2DECFCD
:1001C00002F0DDCF03F0033404E202500008020E17
:1001D000035403E3828672DF8298DECF00F0DDCF26
:1001E00001F0013404E200500008020E01540EE256
:1001F000DECF02F0DDCF03F0033404E20250FF084B
:10020000020E035403E3828665DF8298DECF00F09E
:10021000DDCF01F0013404E20050FF08020E01546A
:100220000EE2DECF02F0DDCF03F0033404E2025031
:10023000FF08030E035403E3828658DF829870D7C9
:10024000040EE15C02E2E16AE552E16EE552E7CFBD
:04025000D9FF1200C0
:0C025400060EF66E000EF76E000EF86E3F
:1002600000010900F550656F0900F550666F03E164
:10027000656701D03DD00900F550606F0900F55069
:10028000616F0900F550626F09000900F550E96ED1
:100290000900F550EA6E090009000900F550636F86
:1002A0000900F550646F09000900F6CF67F0F7CF39
:1002B00068F0F8CF69F060C0F6FF61C0F7FF62C078
:1002C000F8FF0001635302E1645307E00900F550B1
:1002D000EE6E6307F8E26407F9D767C0F6FF68C0FF
:1002E000F7FF69C0F8FF00016507000E665BBFD726
:0202F0001200FA
:0E02F200000EF36E00EE00F0060E01D81200B2
:10030000EA6002D0EE6AFCD7F350E9601200EE6AB0
:02031000FCD718
:0E03120015EE00F025EE00F0F86A059C2AECCE
:0E03200001F097EC01F082EC00F0FBD7120028
:02032E001200BB
:00000001FF
